{
  "_format": "hh-sol-artifact-1",
  "contractName": "Anohito",
  "sourceName": "contracts/Anohito.sol",
  "abi": [
    {
      "inputs": [
        {
          "internalType": "string",
          "name": "uri_",
          "type": "string"
        },
        {
          "internalType": "uint256",
          "name": "rollPrice_",
          "type": "uint256"
        },
        {
          "internalType": "uint256",
          "name": "rollPeriod_",
          "type": "uint256"
        }
      ],
      "stateMutability": "nonpayable",
      "type": "constructor"
    },
    {
      "anonymous": false,
      "inputs": [
        {
          "indexed": true,
          "internalType": "address",
          "name": "account",
          "type": "address"
        },
        {
          "indexed": true,
          "internalType": "address",
          "name": "operator",
          "type": "address"
        },
        {
          "indexed": false,
          "internalType": "bool",
          "name": "approved",
          "type": "bool"
        }
      ],
      "name": "ApprovalForAll",
      "type": "event"
    },
    {
      "anonymous": false,
      "inputs": [
        {
          "indexed": true,
          "internalType": "address",
          "name": "previousOwner",
          "type": "address"
        },
        {
          "indexed": true,
          "internalType": "address",
          "name": "newOwner",
          "type": "address"
        }
      ],
      "name": "OwnershipTransferred",
      "type": "event"
    },
    {
      "anonymous": false,
      "inputs": [
        {
          "indexed": true,
          "internalType": "address",
          "name": "roller",
          "type": "address"
        },
        {
          "indexed": true,
          "internalType": "uint256",
          "name": "tokenId",
          "type": "uint256"
        }
      ],
      "name": "Rolled",
      "type": "event"
    },
    {
      "anonymous": false,
      "inputs": [
        {
          "indexed": true,
          "internalType": "address",
          "name": "operator",
          "type": "address"
        },
        {
          "indexed": true,
          "internalType": "address",
          "name": "from",
          "type": "address"
        },
        {
          "indexed": true,
          "internalType": "address",
          "name": "to",
          "type": "address"
        },
        {
          "indexed": false,
          "internalType": "uint256[]",
          "name": "ids",
          "type": "uint256[]"
        },
        {
          "indexed": false,
          "internalType": "uint256[]",
          "name": "values",
          "type": "uint256[]"
        }
      ],
      "name": "TransferBatch",
      "type": "event"
    },
    {
      "anonymous": false,
      "inputs": [
        {
          "indexed": true,
          "internalType": "address",
          "name": "operator",
          "type": "address"
        },
        {
          "indexed": true,
          "internalType": "address",
          "name": "from",
          "type": "address"
        },
        {
          "indexed": true,
          "internalType": "address",
          "name": "to",
          "type": "address"
        },
        {
          "indexed": false,
          "internalType": "uint256",
          "name": "id",
          "type": "uint256"
        },
        {
          "indexed": false,
          "internalType": "uint256",
          "name": "value",
          "type": "uint256"
        }
      ],
      "name": "TransferSingle",
      "type": "event"
    },
    {
      "anonymous": false,
      "inputs": [
        {
          "indexed": false,
          "internalType": "string",
          "name": "value",
          "type": "string"
        },
        {
          "indexed": true,
          "internalType": "uint256",
          "name": "id",
          "type": "uint256"
        }
      ],
      "name": "URI",
      "type": "event"
    },
    {
      "inputs": [
        {
          "internalType": "address",
          "name": "account",
          "type": "address"
        },
        {
          "internalType": "uint256",
          "name": "id",
          "type": "uint256"
        }
      ],
      "name": "balanceOf",
      "outputs": [
        {
          "internalType": "uint256",
          "name": "",
          "type": "uint256"
        }
      ],
      "stateMutability": "view",
      "type": "function"
    },
    {
      "inputs": [
        {
          "internalType": "address[]",
          "name": "accounts",
          "type": "address[]"
        },
        {
          "internalType": "uint256[]",
          "name": "ids",
          "type": "uint256[]"
        }
      ],
      "name": "balanceOfBatch",
      "outputs": [
        {
          "internalType": "uint256[]",
          "name": "",
          "type": "uint256[]"
        }
      ],
      "stateMutability": "view",
      "type": "function"
    },
    {
      "inputs": [],
      "name": "deadline",
      "outputs": [
        {
          "internalType": "uint256",
          "name": "",
          "type": "uint256"
        }
      ],
      "stateMutability": "view",
      "type": "function"
    },
    {
      "inputs": [
        {
          "internalType": "uint256",
          "name": "id",
          "type": "uint256"
        }
      ],
      "name": "exists",
      "outputs": [
        {
          "internalType": "bool",
          "name": "",
          "type": "bool"
        }
      ],
      "stateMutability": "view",
      "type": "function"
    },
    {
      "inputs": [
        {
          "internalType": "address",
          "name": "account",
          "type": "address"
        },
        {
          "internalType": "address",
          "name": "operator",
          "type": "address"
        }
      ],
      "name": "isApprovedForAll",
      "outputs": [
        {
          "internalType": "bool",
          "name": "",
          "type": "bool"
        }
      ],
      "stateMutability": "view",
      "type": "function"
    },
    {
      "inputs": [],
      "name": "owner",
      "outputs": [
        {
          "internalType": "address",
          "name": "",
          "type": "address"
        }
      ],
      "stateMutability": "view",
      "type": "function"
    },
    {
      "inputs": [],
      "name": "renounceOwnership",
      "outputs": [],
      "stateMutability": "nonpayable",
      "type": "function"
    },
    {
      "inputs": [],
      "name": "roll",
      "outputs": [],
      "stateMutability": "payable",
      "type": "function"
    },
    {
      "inputs": [],
      "name": "rollPrice",
      "outputs": [
        {
          "internalType": "uint256",
          "name": "",
          "type": "uint256"
        }
      ],
      "stateMutability": "view",
      "type": "function"
    },
    {
      "inputs": [
        {
          "internalType": "address",
          "name": "from",
          "type": "address"
        },
        {
          "internalType": "address",
          "name": "to",
          "type": "address"
        },
        {
          "internalType": "uint256[]",
          "name": "ids",
          "type": "uint256[]"
        },
        {
          "internalType": "uint256[]",
          "name": "amounts",
          "type": "uint256[]"
        },
        {
          "internalType": "bytes",
          "name": "data",
          "type": "bytes"
        }
      ],
      "name": "safeBatchTransferFrom",
      "outputs": [],
      "stateMutability": "nonpayable",
      "type": "function"
    },
    {
      "inputs": [
        {
          "internalType": "address",
          "name": "from",
          "type": "address"
        },
        {
          "internalType": "address",
          "name": "to",
          "type": "address"
        },
        {
          "internalType": "uint256",
          "name": "id",
          "type": "uint256"
        },
        {
          "internalType": "uint256",
          "name": "amount",
          "type": "uint256"
        },
        {
          "internalType": "bytes",
          "name": "data",
          "type": "bytes"
        }
      ],
      "name": "safeTransferFrom",
      "outputs": [],
      "stateMutability": "nonpayable",
      "type": "function"
    },
    {
      "inputs": [
        {
          "internalType": "address",
          "name": "operator",
          "type": "address"
        },
        {
          "internalType": "bool",
          "name": "approved",
          "type": "bool"
        }
      ],
      "name": "setApprovalForAll",
      "outputs": [],
      "stateMutability": "nonpayable",
      "type": "function"
    },
    {
      "inputs": [
        {
          "internalType": "string",
          "name": "newuri",
          "type": "string"
        }
      ],
      "name": "setURI",
      "outputs": [],
      "stateMutability": "nonpayable",
      "type": "function"
    },
    {
      "inputs": [
        {
          "internalType": "bytes4",
          "name": "interfaceId",
          "type": "bytes4"
        }
      ],
      "name": "supportsInterface",
      "outputs": [
        {
          "internalType": "bool",
          "name": "",
          "type": "bool"
        }
      ],
      "stateMutability": "view",
      "type": "function"
    },
    {
      "inputs": [
        {
          "internalType": "uint256",
          "name": "id",
          "type": "uint256"
        }
      ],
      "name": "totalSupply",
      "outputs": [
        {
          "internalType": "uint256",
          "name": "",
          "type": "uint256"
        }
      ],
      "stateMutability": "view",
      "type": "function"
    },
    {
      "inputs": [
        {
          "internalType": "address",
          "name": "newOwner",
          "type": "address"
        }
      ],
      "name": "transferOwnership",
      "outputs": [],
      "stateMutability": "nonpayable",
      "type": "function"
    },
    {
      "inputs": [
        {
          "internalType": "uint256",
          "name": "",
          "type": "uint256"
        }
      ],
      "name": "uri",
      "outputs": [
        {
          "internalType": "string",
          "name": "",
          "type": "string"
        }
      ],
      "stateMutability": "view",
      "type": "function"
    },
    {
      "inputs": [
        {
          "internalType": "uint256",
          "name": "amount_",
          "type": "uint256"
        }
      ],
      "name": "withdraw",
      "outputs": [],
      "stateMutability": "nonpayable",
      "type": "function"
    }
  ],
  "bytecode": "0x60c060405260016005553480156200001657600080fd5b50604051620022e3380380620022e3833981016040819052620000399162000196565b8262000045816200006f565b50620000513362000088565b608082905262000062814262000286565b60a05250620002ea915050565b805162000084906002906020840190620000da565b5050565b600380546001600160a01b038381166001600160a01b0319831681179093556040519116919082907f8be0079c531659141344cd1fd0a4f28419497f9722a3daafe3b4186f6b6457e090600090a35050565b828054620000e890620002ad565b90600052602060002090601f0160209004810192826200010c576000855562000157565b82601f106200012757805160ff191683800117855562000157565b8280016001018555821562000157579182015b82811115620001575782518255916020019190600101906200013a565b506200016592915062000169565b5090565b5b808211156200016557600081556001016200016a565b634e487b7160e01b600052604160045260246000fd5b600080600060608486031215620001ac57600080fd5b83516001600160401b0380821115620001c457600080fd5b818601915086601f830112620001d957600080fd5b815181811115620001ee57620001ee62000180565b604051601f8201601f19908116603f0116810190838211818310171562000219576200021962000180565b816040528281526020935089848487010111156200023657600080fd5b600091505b828210156200025a57848201840151818301850152908301906200023b565b828211156200026c5760008484830101525b928801516040909801519299979850919695505050505050565b60008219821115620002a857634e487b7160e01b600052601160045260246000fd5b500190565b600181811c90821680620002c257607f821691505b60208210811415620002e457634e487b7160e01b600052602260045260246000fd5b50919050565b60805160a051611fc56200031e600039600081816101f1015261090001526000818161035301526108910152611fc56000f3fe6080604052600436106101285760003560e01c8063715018a6116100a5578063cd5e3c5d11610074578063e985e9c511610059578063e985e9c514610375578063f242432a146103be578063f2fde38b146103de57600080fd5b8063cd5e3c5d14610339578063cf3af3a11461034157600080fd5b8063715018a6146102af5780638da5cb5b146102c4578063a22cb465146102ec578063bd85b0391461030c57600080fd5b806329dcb0cf116100fc5780632eb2c2d6116100e15780632eb2c2d6146102335780634e1273f4146102535780634f558e791461028057600080fd5b806329dcb0cf146101df5780632e1a7d4d1461021357600080fd5b8062fdd58e1461012d57806301ffc9a71461016057806302fe5305146101905780630e89341c146101b2575b600080fd5b34801561013957600080fd5b5061014d6101483660046117e6565b6103fe565b6040519081526020015b60405180910390f35b34801561016c57600080fd5b5061018061017b366004611826565b6104a7565b6040519015158152602001610157565b34801561019c57600080fd5b506101b06101ab3660046118eb565b610544565b005b3480156101be57600080fd5b506101d26101cd36600461193c565b610558565b60405161015791906119a2565b3480156101eb57600080fd5b5061014d7f000000000000000000000000000000000000000000000000000000000000000081565b34801561021f57600080fd5b506101b061022e36600461193c565b6105ec565b34801561023f57600080fd5b506101b061024e366004611a6a565b610690565b34801561025f57600080fd5b5061027361026e366004611b14565b610732565b6040516101579190611c1a565b34801561028c57600080fd5b5061018061029b36600461193c565b600090815260046020526040902054151590565b3480156102bb57600080fd5b506101b0610870565b3480156102d057600080fd5b506003546040516001600160a01b039091168152602001610157565b3480156102f857600080fd5b506101b0610307366004611c2d565b610884565b34801561031857600080fd5b5061014d61032736600461193c565b60009081526004602052604090205490565b6101b061088f565b34801561034d57600080fd5b5061014d7f000000000000000000000000000000000000000000000000000000000000000081565b34801561038157600080fd5b50610180610390366004611c69565b6001600160a01b03918216600090815260016020908152604080832093909416825291909152205460ff1690565b3480156103ca57600080fd5b506101b06103d9366004611c9c565b610a1d565b3480156103ea57600080fd5b506101b06103f9366004611d01565b610ab8565b60006001600160a01b0383166104815760405162461bcd60e51b815260206004820152602a60248201527f455243313135353a2061646472657373207a65726f206973206e6f742061207660448201527f616c6964206f776e65720000000000000000000000000000000000000000000060648201526084015b60405180910390fd5b506000908152602081815260408083206001600160a01b03949094168352929052205490565b60006001600160e01b031982167fd9b67a2600000000000000000000000000000000000000000000000000000000148061050a57506001600160e01b031982167f0e89341c00000000000000000000000000000000000000000000000000000000145b8061053e57507f01ffc9a7000000000000000000000000000000000000000000000000000000006001600160e01b03198316145b92915050565b61054c610b45565b61055581610b9f565b50565b60606002805461056790611d1c565b80601f016020809104026020016040519081016040528092919081815260200182805461059390611d1c565b80156105e05780601f106105b5576101008083540402835291602001916105e0565b820191906000526020600020905b8154815290600101906020018083116105c357829003601f168201915b50505050509050919050565b6105f4610b45565b604051600090339083908381818185875af1925050503d8060008114610636576040519150601f19603f3d011682016040523d82523d6000602084013e61063b565b606091505b505090508061068c5760405162461bcd60e51b815260206004820152601460248201527f4661696c656420746f2073656e642076616c75650000000000000000000000006044820152606401610478565b5050565b6001600160a01b0385163314806106ac57506106ac8533610390565b61071e5760405162461bcd60e51b815260206004820152602e60248201527f455243313135353a2063616c6c6572206973206e6f7420746f6b656e206f776e60448201527f6572206f7220617070726f7665640000000000000000000000000000000000006064820152608401610478565b61072b8585858585610bb2565b5050505050565b606081518351146107ab5760405162461bcd60e51b815260206004820152602960248201527f455243313135353a206163636f756e747320616e6420696473206c656e67746860448201527f206d69736d6174636800000000000000000000000000000000000000000000006064820152608401610478565b6000835167ffffffffffffffff8111156107c7576107c761184a565b6040519080825280602002602001820160405280156107f0578160200160208202803683370190505b50905060005b84518110156108685761083b85828151811061081457610814611d57565b602002602001015185838151811061082e5761082e611d57565b60200260200101516103fe565b82828151811061084d5761084d611d57565b602090810291909101015261086181611d83565b90506107f6565b509392505050565b610878610b45565b6108826000610e33565b565b61068c338383610e9d565b7f000000000000000000000000000000000000000000000000000000000000000034146108fe5760405162461bcd60e51b815260206004820152600b60248201527f57726f6e672076616c75650000000000000000000000000000000000000000006044820152606401610478565b7f0000000000000000000000000000000000000000000000000000000000000000421061096d5760405162461bcd60e51b815260206004820152601160248201527f526f6c6c20706572696f6420656e6465640000000000000000000000000000006044820152606401610478565b600061097a600143611d9e565b600554604080519240602084015282015260600160408051601f1981840301815291905280516020909101206005805491925060006109b883611d83565b90915550600090506109cb600a83611db5565b60ff1690506109ec3382600160405180602001604052806000815250610f92565b604051819033907fc448780095c888069f570dff7892c707b30a0617e3a68ce5e24405b6e8f9882190600090a35050565b6001600160a01b038516331480610a395750610a398533610390565b610aab5760405162461bcd60e51b815260206004820152602e60248201527f455243313135353a2063616c6c6572206973206e6f7420746f6b656e206f776e60448201527f6572206f7220617070726f7665640000000000000000000000000000000000006064820152608401610478565b61072b85858585856110d1565b610ac0610b45565b6001600160a01b038116610b3c5760405162461bcd60e51b815260206004820152602660248201527f4f776e61626c653a206e6577206f776e657220697320746865207a65726f206160448201527f64647265737300000000000000000000000000000000000000000000000000006064820152608401610478565b61055581610e33565b6003546001600160a01b031633146108825760405162461bcd60e51b815260206004820181905260248201527f4f776e61626c653a2063616c6c6572206973206e6f7420746865206f776e65726044820152606401610478565b805161068c906002906020840190611731565b8151835114610c295760405162461bcd60e51b815260206004820152602860248201527f455243313135353a2069647320616e6420616d6f756e7473206c656e6774682060448201527f6d69736d617463680000000000000000000000000000000000000000000000006064820152608401610478565b6001600160a01b038416610c8d5760405162461bcd60e51b815260206004820152602560248201527f455243313135353a207472616e7366657220746f20746865207a65726f206164604482015264647265737360d81b6064820152608401610478565b33610c9c81878787878761128a565b60005b8451811015610dc5576000858281518110610cbc57610cbc611d57565b602002602001015190506000858381518110610cda57610cda611d57565b602090810291909101810151600084815280835260408082206001600160a01b038e168352909352919091205490915081811015610d6d5760405162461bcd60e51b815260206004820152602a60248201527f455243313135353a20696e73756666696369656e742062616c616e636520666f60448201526939103a3930b739b332b960b11b6064820152608401610478565b6000838152602081815260408083206001600160a01b038e8116855292528083208585039055908b16825281208054849290610daa908490611de5565b9250508190555050505080610dbe90611d83565b9050610c9f565b50846001600160a01b0316866001600160a01b0316826001600160a01b03167f4a39dc06d4c0dbc64b70af90fd698a233a518aa5d07e595d983b8c0526c8f7fb8787604051610e15929190611dfd565b60405180910390a4610e2b818787878787611298565b505050505050565b600380546001600160a01b038381167fffffffffffffffffffffffff0000000000000000000000000000000000000000831681179093556040519116919082907f8be0079c531659141344cd1fd0a4f28419497f9722a3daafe3b4186f6b6457e090600090a35050565b816001600160a01b0316836001600160a01b03161415610f255760405162461bcd60e51b815260206004820152602960248201527f455243313135353a2073657474696e6720617070726f76616c2073746174757360448201527f20666f722073656c6600000000000000000000000000000000000000000000006064820152608401610478565b6001600160a01b03838116600081815260016020908152604080832094871680845294825291829020805460ff191686151590811790915591519182527f17307eab39ab6107e8899845ad3d59bd9653f200f220920489ca2b5937696c31910160405180910390a3505050565b6001600160a01b03841661100e5760405162461bcd60e51b815260206004820152602160248201527f455243313135353a206d696e7420746f20746865207a65726f2061646472657360448201527f73000000000000000000000000000000000000000000000000000000000000006064820152608401610478565b33600061101a8561144d565b905060006110278561144d565b90506110388360008985858961128a565b6000868152602081815260408083206001600160a01b038b16845290915281208054879290611068908490611de5565b909155505060408051878152602081018790526001600160a01b03808a1692600092918716917fc3d58168c5ae7397731d063d5bbf3d657854427343f4c083240f7aacaa2d0f62910160405180910390a46110c883600089898989611498565b50505050505050565b6001600160a01b0384166111355760405162461bcd60e51b815260206004820152602560248201527f455243313135353a207472616e7366657220746f20746865207a65726f206164604482015264647265737360d81b6064820152608401610478565b3360006111418561144d565b9050600061114e8561144d565b905061115e83898985858961128a565b6000868152602081815260408083206001600160a01b038c168452909152902054858110156111e25760405162461bcd60e51b815260206004820152602a60248201527f455243313135353a20696e73756666696369656e742062616c616e636520666f60448201526939103a3930b739b332b960b11b6064820152608401610478565b6000878152602081815260408083206001600160a01b038d8116855292528083208985039055908a1682528120805488929061121f908490611de5565b909155505060408051888152602081018890526001600160a01b03808b16928c821692918816917fc3d58168c5ae7397731d063d5bbf3d657854427343f4c083240f7aacaa2d0f62910160405180910390a461127f848a8a8a8a8a611498565b505050505050505050565b610e2b8686868686866115a3565b6001600160a01b0384163b15610e2b5760405163bc197c8160e01b81526001600160a01b0385169063bc197c81906112dc9089908990889088908890600401611e2b565b602060405180830381600087803b1580156112f657600080fd5b505af1925050508015611326575060408051601f3d908101601f1916820190925261132391810190611e89565b60015b6113dc57611332611ea6565b806308c379a0141561136c5750611347611ec2565b80611352575061136e565b8060405162461bcd60e51b815260040161047891906119a2565b505b60405162461bcd60e51b815260206004820152603460248201527f455243313135353a207472616e7366657220746f206e6f6e2d4552433131353560448201527f526563656976657220696d706c656d656e7465720000000000000000000000006064820152608401610478565b6001600160e01b0319811663bc197c8160e01b146110c85760405162461bcd60e51b815260206004820152602860248201527f455243313135353a204552433131353552656365697665722072656a656374656044820152676420746f6b656e7360c01b6064820152608401610478565b6040805160018082528183019092526060916000919060208083019080368337019050509050828160008151811061148757611487611d57565b602090810291909101015292915050565b6001600160a01b0384163b15610e2b5760405163f23a6e6160e01b81526001600160a01b0385169063f23a6e61906114dc9089908990889088908890600401611f4c565b602060405180830381600087803b1580156114f657600080fd5b505af1925050508015611526575060408051601f3d908101601f1916820190925261152391810190611e89565b60015b61153257611332611ea6565b6001600160e01b0319811663f23a6e6160e01b146110c85760405162461bcd60e51b815260206004820152602860248201527f455243313135353a204552433131353552656365697665722072656a656374656044820152676420746f6b656e7360c01b6064820152608401610478565b6001600160a01b03851661162a5760005b8351811015611628578281815181106115cf576115cf611d57565b6020026020010151600460008684815181106115ed576115ed611d57565b6020026020010151815260200190815260200160002060008282546116129190611de5565b90915550611621905081611d83565b90506115b4565b505b6001600160a01b038416610e2b5760005b83518110156110c857600084828151811061165857611658611d57565b60200260200101519050600084838151811061167657611676611d57565b602002602001015190506000600460008481526020019081526020016000205490508181101561170e5760405162461bcd60e51b815260206004820152602860248201527f455243313135353a206275726e20616d6f756e74206578636565647320746f7460448201527f616c537570706c790000000000000000000000000000000000000000000000006064820152608401610478565b6000928352600460205260409092209103905561172a81611d83565b905061163b565b82805461173d90611d1c565b90600052602060002090601f01602090048101928261175f57600085556117a5565b82601f1061177857805160ff19168380011785556117a5565b828001600101855582156117a5579182015b828111156117a557825182559160200191906001019061178a565b506117b19291506117b5565b5090565b5b808211156117b157600081556001016117b6565b80356001600160a01b03811681146117e157600080fd5b919050565b600080604083850312156117f957600080fd5b611802836117ca565b946020939093013593505050565b6001600160e01b03198116811461055557600080fd5b60006020828403121561183857600080fd5b813561184381611810565b9392505050565b634e487b7160e01b600052604160045260246000fd5b601f8201601f1916810167ffffffffffffffff811182821017156118865761188661184a565b6040525050565b600067ffffffffffffffff8311156118a7576118a761184a565b6040516118be601f8501601f191660200182611860565b8091508381528484840111156118d357600080fd5b83836020830137600060208583010152509392505050565b6000602082840312156118fd57600080fd5b813567ffffffffffffffff81111561191457600080fd5b8201601f8101841361192557600080fd5b6119348482356020840161188d565b949350505050565b60006020828403121561194e57600080fd5b5035919050565b6000815180845260005b8181101561197b5760208185018101518683018201520161195f565b8181111561198d576000602083870101525b50601f01601f19169290920160200192915050565b6020815260006118436020830184611955565b600067ffffffffffffffff8211156119cf576119cf61184a565b5060051b60200190565b600082601f8301126119ea57600080fd5b813560206119f7826119b5565b604051611a048282611860565b83815260059390931b8501820192828101915086841115611a2457600080fd5b8286015b84811015611a3f5780358352918301918301611a28565b509695505050505050565b600082601f830112611a5b57600080fd5b6118438383356020850161188d565b600080600080600060a08688031215611a8257600080fd5b611a8b866117ca565b9450611a99602087016117ca565b9350604086013567ffffffffffffffff80821115611ab657600080fd5b611ac289838a016119d9565b94506060880135915080821115611ad857600080fd5b611ae489838a016119d9565b93506080880135915080821115611afa57600080fd5b50611b0788828901611a4a565b9150509295509295909350565b60008060408385031215611b2757600080fd5b823567ffffffffffffffff80821115611b3f57600080fd5b818501915085601f830112611b5357600080fd5b81356020611b60826119b5565b604051611b6d8282611860565b83815260059390931b8501820192828101915089841115611b8d57600080fd5b948201945b83861015611bb257611ba3866117ca565b82529482019490820190611b92565b96505086013592505080821115611bc857600080fd5b50611bd5858286016119d9565b9150509250929050565b600081518084526020808501945080840160005b83811015611c0f57815187529582019590820190600101611bf3565b509495945050505050565b6020815260006118436020830184611bdf565b60008060408385031215611c4057600080fd5b611c49836117ca565b915060208301358015158114611c5e57600080fd5b809150509250929050565b60008060408385031215611c7c57600080fd5b611c85836117ca565b9150611c93602084016117ca565b90509250929050565b600080600080600060a08688031215611cb457600080fd5b611cbd866117ca565b9450611ccb602087016117ca565b93506040860135925060608601359150608086013567ffffffffffffffff811115611cf557600080fd5b611b0788828901611a4a565b600060208284031215611d1357600080fd5b611843826117ca565b600181811c90821680611d3057607f821691505b60208210811415611d5157634e487b7160e01b600052602260045260246000fd5b50919050565b634e487b7160e01b600052603260045260246000fd5b634e487b7160e01b600052601160045260246000fd5b6000600019821415611d9757611d97611d6d565b5060010190565b600082821015611db057611db0611d6d565b500390565b600060ff831680611dd657634e487b7160e01b600052601260045260246000fd5b8060ff84160691505092915050565b60008219821115611df857611df8611d6d565b500190565b604081526000611e106040830185611bdf565b8281036020840152611e228185611bdf565b95945050505050565b60006001600160a01b03808816835280871660208401525060a06040830152611e5760a0830186611bdf565b8281036060840152611e698186611bdf565b90508281036080840152611e7d8185611955565b98975050505050505050565b600060208284031215611e9b57600080fd5b815161184381611810565b600060033d1115611ebf5760046000803e5060005160e01c5b90565b600060443d1015611ed05790565b6040516003193d81016004833e81513d67ffffffffffffffff8160248401118184111715611f0057505050505090565b8285019150815181811115611f185750505050505090565b843d8701016020828501011115611f325750505050505090565b611f4160208286010187611860565b509095945050505050565b60006001600160a01b03808816835280871660208401525084604083015283606083015260a06080830152611f8460a0830184611955565b97965050505050505056fea2646970667358221220352703e627fc808a46862af03b73b5312a00bd6fc192bb6007b184fd4ccb5dd964736f6c63430008090033",
  "linkReferences": {},
  "deployedLinkReferences": {}
}