{
  "_format": "hh-sol-artifact-1",
  "contractName": "Anohito",
  "sourceName": "contracts/Anohito.sol",
  "abi": [
    {
      "inputs": [
        {
          "internalType": "string",
          "name": "uri_",
          "type": "string"
        },
        {
          "internalType": "uint256",
          "name": "rollPrice_",
          "type": "uint256"
        },
        {
          "internalType": "uint256",
          "name": "rollPeriod_",
          "type": "uint256"
        }
      ],
      "stateMutability": "nonpayable",
      "type": "constructor"
    },
    {
      "anonymous": false,
      "inputs": [
        {
          "indexed": true,
          "internalType": "address",
          "name": "account",
          "type": "address"
        },
        {
          "indexed": true,
          "internalType": "address",
          "name": "operator",
          "type": "address"
        },
        {
          "indexed": false,
          "internalType": "bool",
          "name": "approved",
          "type": "bool"
        }
      ],
      "name": "ApprovalForAll",
      "type": "event"
    },
    {
      "anonymous": false,
      "inputs": [
        {
          "indexed": true,
          "internalType": "address",
          "name": "previousOwner",
          "type": "address"
        },
        {
          "indexed": true,
          "internalType": "address",
          "name": "newOwner",
          "type": "address"
        }
      ],
      "name": "OwnershipTransferred",
      "type": "event"
    },
    {
      "anonymous": false,
      "inputs": [
        {
          "indexed": true,
          "internalType": "address",
          "name": "roller",
          "type": "address"
        },
        {
          "indexed": true,
          "internalType": "uint256",
          "name": "tokenId",
          "type": "uint256"
        }
      ],
      "name": "Rolled",
      "type": "event"
    },
    {
      "anonymous": false,
      "inputs": [
        {
          "indexed": true,
          "internalType": "address",
          "name": "operator",
          "type": "address"
        },
        {
          "indexed": true,
          "internalType": "address",
          "name": "from",
          "type": "address"
        },
        {
          "indexed": true,
          "internalType": "address",
          "name": "to",
          "type": "address"
        },
        {
          "indexed": false,
          "internalType": "uint256[]",
          "name": "ids",
          "type": "uint256[]"
        },
        {
          "indexed": false,
          "internalType": "uint256[]",
          "name": "values",
          "type": "uint256[]"
        }
      ],
      "name": "TransferBatch",
      "type": "event"
    },
    {
      "anonymous": false,
      "inputs": [
        {
          "indexed": true,
          "internalType": "address",
          "name": "operator",
          "type": "address"
        },
        {
          "indexed": true,
          "internalType": "address",
          "name": "from",
          "type": "address"
        },
        {
          "indexed": true,
          "internalType": "address",
          "name": "to",
          "type": "address"
        },
        {
          "indexed": false,
          "internalType": "uint256",
          "name": "id",
          "type": "uint256"
        },
        {
          "indexed": false,
          "internalType": "uint256",
          "name": "value",
          "type": "uint256"
        }
      ],
      "name": "TransferSingle",
      "type": "event"
    },
    {
      "anonymous": false,
      "inputs": [
        {
          "indexed": false,
          "internalType": "string",
          "name": "value",
          "type": "string"
        },
        {
          "indexed": true,
          "internalType": "uint256",
          "name": "id",
          "type": "uint256"
        }
      ],
      "name": "URI",
      "type": "event"
    },
    {
      "inputs": [
        {
          "internalType": "address",
          "name": "account",
          "type": "address"
        },
        {
          "internalType": "uint256",
          "name": "id",
          "type": "uint256"
        }
      ],
      "name": "balanceOf",
      "outputs": [
        {
          "internalType": "uint256",
          "name": "",
          "type": "uint256"
        }
      ],
      "stateMutability": "view",
      "type": "function"
    },
    {
      "inputs": [
        {
          "internalType": "address",
          "name": "account_",
          "type": "address"
        }
      ],
      "name": "balanceOfAll",
      "outputs": [
        {
          "internalType": "uint256[10]",
          "name": "",
          "type": "uint256[10]"
        }
      ],
      "stateMutability": "view",
      "type": "function"
    },
    {
      "inputs": [
        {
          "internalType": "address[]",
          "name": "accounts",
          "type": "address[]"
        },
        {
          "internalType": "uint256[]",
          "name": "ids",
          "type": "uint256[]"
        }
      ],
      "name": "balanceOfBatch",
      "outputs": [
        {
          "internalType": "uint256[]",
          "name": "",
          "type": "uint256[]"
        }
      ],
      "stateMutability": "view",
      "type": "function"
    },
    {
      "inputs": [],
      "name": "deadline",
      "outputs": [
        {
          "internalType": "uint256",
          "name": "",
          "type": "uint256"
        }
      ],
      "stateMutability": "view",
      "type": "function"
    },
    {
      "inputs": [
        {
          "internalType": "uint256",
          "name": "id",
          "type": "uint256"
        }
      ],
      "name": "exists",
      "outputs": [
        {
          "internalType": "bool",
          "name": "",
          "type": "bool"
        }
      ],
      "stateMutability": "view",
      "type": "function"
    },
    {
      "inputs": [
        {
          "internalType": "address",
          "name": "account",
          "type": "address"
        },
        {
          "internalType": "address",
          "name": "operator",
          "type": "address"
        }
      ],
      "name": "isApprovedForAll",
      "outputs": [
        {
          "internalType": "bool",
          "name": "",
          "type": "bool"
        }
      ],
      "stateMutability": "view",
      "type": "function"
    },
    {
      "inputs": [],
      "name": "owner",
      "outputs": [
        {
          "internalType": "address",
          "name": "",
          "type": "address"
        }
      ],
      "stateMutability": "view",
      "type": "function"
    },
    {
      "inputs": [],
      "name": "renounceOwnership",
      "outputs": [],
      "stateMutability": "nonpayable",
      "type": "function"
    },
    {
      "inputs": [],
      "name": "roll",
      "outputs": [],
      "stateMutability": "payable",
      "type": "function"
    },
    {
      "inputs": [],
      "name": "rollPrice",
      "outputs": [
        {
          "internalType": "uint256",
          "name": "",
          "type": "uint256"
        }
      ],
      "stateMutability": "view",
      "type": "function"
    },
    {
      "inputs": [
        {
          "internalType": "address",
          "name": "from",
          "type": "address"
        },
        {
          "internalType": "address",
          "name": "to",
          "type": "address"
        },
        {
          "internalType": "uint256[]",
          "name": "ids",
          "type": "uint256[]"
        },
        {
          "internalType": "uint256[]",
          "name": "amounts",
          "type": "uint256[]"
        },
        {
          "internalType": "bytes",
          "name": "data",
          "type": "bytes"
        }
      ],
      "name": "safeBatchTransferFrom",
      "outputs": [],
      "stateMutability": "nonpayable",
      "type": "function"
    },
    {
      "inputs": [
        {
          "internalType": "address",
          "name": "from",
          "type": "address"
        },
        {
          "internalType": "address",
          "name": "to",
          "type": "address"
        },
        {
          "internalType": "uint256",
          "name": "id",
          "type": "uint256"
        },
        {
          "internalType": "uint256",
          "name": "amount",
          "type": "uint256"
        },
        {
          "internalType": "bytes",
          "name": "data",
          "type": "bytes"
        }
      ],
      "name": "safeTransferFrom",
      "outputs": [],
      "stateMutability": "nonpayable",
      "type": "function"
    },
    {
      "inputs": [
        {
          "internalType": "address",
          "name": "operator",
          "type": "address"
        },
        {
          "internalType": "bool",
          "name": "approved",
          "type": "bool"
        }
      ],
      "name": "setApprovalForAll",
      "outputs": [],
      "stateMutability": "nonpayable",
      "type": "function"
    },
    {
      "inputs": [
        {
          "internalType": "string",
          "name": "newuri",
          "type": "string"
        }
      ],
      "name": "setURI",
      "outputs": [],
      "stateMutability": "nonpayable",
      "type": "function"
    },
    {
      "inputs": [
        {
          "internalType": "bytes4",
          "name": "interfaceId",
          "type": "bytes4"
        }
      ],
      "name": "supportsInterface",
      "outputs": [
        {
          "internalType": "bool",
          "name": "",
          "type": "bool"
        }
      ],
      "stateMutability": "view",
      "type": "function"
    },
    {
      "inputs": [
        {
          "internalType": "uint256",
          "name": "id",
          "type": "uint256"
        }
      ],
      "name": "totalSupply",
      "outputs": [
        {
          "internalType": "uint256",
          "name": "",
          "type": "uint256"
        }
      ],
      "stateMutability": "view",
      "type": "function"
    },
    {
      "inputs": [],
      "name": "totalSupplyAll",
      "outputs": [
        {
          "internalType": "uint256[10]",
          "name": "",
          "type": "uint256[10]"
        }
      ],
      "stateMutability": "view",
      "type": "function"
    },
    {
      "inputs": [
        {
          "internalType": "address",
          "name": "newOwner",
          "type": "address"
        }
      ],
      "name": "transferOwnership",
      "outputs": [],
      "stateMutability": "nonpayable",
      "type": "function"
    },
    {
      "inputs": [
        {
          "internalType": "uint256",
          "name": "",
          "type": "uint256"
        }
      ],
      "name": "uri",
      "outputs": [
        {
          "internalType": "string",
          "name": "",
          "type": "string"
        }
      ],
      "stateMutability": "view",
      "type": "function"
    },
    {
      "inputs": [
        {
          "internalType": "uint256",
          "name": "amount_",
          "type": "uint256"
        }
      ],
      "name": "withdraw",
      "outputs": [],
      "stateMutability": "nonpayable",
      "type": "function"
    }
  ],
  "bytecode": "0x60c060405260016005553480156200001657600080fd5b506040516200245638038062002456833981016040819052620000399162000196565b8262000045816200006f565b50620000513362000088565b608082905262000062814262000286565b60a05250620002ea915050565b805162000084906002906020840190620000da565b5050565b600380546001600160a01b038381166001600160a01b0319831681179093556040519116919082907f8be0079c531659141344cd1fd0a4f28419497f9722a3daafe3b4186f6b6457e090600090a35050565b828054620000e890620002ad565b90600052602060002090601f0160209004810192826200010c576000855562000157565b82601f106200012757805160ff191683800117855562000157565b8280016001018555821562000157579182015b82811115620001575782518255916020019190600101906200013a565b506200016592915062000169565b5090565b5b808211156200016557600081556001016200016a565b634e487b7160e01b600052604160045260246000fd5b600080600060608486031215620001ac57600080fd5b83516001600160401b0380821115620001c457600080fd5b818601915086601f830112620001d957600080fd5b815181811115620001ee57620001ee62000180565b604051601f8201601f19908116603f0116810190838211818310171562000219576200021962000180565b816040528281526020935089848487010111156200023657600080fd5b600091505b828210156200025a57848201840151818301850152908301906200023b565b828211156200026c5760008484830101525b928801516040909801519299979850919695505050505050565b60008219821115620002a857634e487b7160e01b600052601160045260246000fd5b500190565b600181811c90821680620002c257607f821691505b60208210811415620002e457634e487b7160e01b600052602260045260246000fd5b50919050565b60805160a0516121386200031e6000396000818161022701526109d20152600081816103ab015261096301526121386000f3fe60806040526004361061015e5760003560e01c80638da5cb5b116100c0578063cf3af3a111610074578063f242432a11610059578063f242432a14610416578063f2fde38b14610436578063fe992c981461045657600080fd5b8063cf3af3a114610399578063e985e9c5146103cd57600080fd5b8063b42394f1116100a5578063b42394f114610342578063bd85b03914610364578063cd5e3c5d1461039157600080fd5b80638da5cb5b146102fa578063a22cb4651461032257600080fd5b80632e1a7d4d116101175780634e1273f4116100fc5780634e1273f4146102895780634f558e79146102b6578063715018a6146102e557600080fd5b80632e1a7d4d146102495780632eb2c2d61461026957600080fd5b806302fe53051161014857806302fe5305146101c65780630e89341c146101e857806329dcb0cf1461021557600080fd5b8062fdd58e1461016357806301ffc9a714610196575b600080fd5b34801561016f57600080fd5b5061018361017e36600461192d565b610476565b6040519081526020015b60405180910390f35b3480156101a257600080fd5b506101b66101b136600461196d565b61051f565b604051901515815260200161018d565b3480156101d257600080fd5b506101e66101e1366004611a32565b6105bc565b005b3480156101f457600080fd5b50610208610203366004611a83565b6105d0565b60405161018d9190611ae9565b34801561022157600080fd5b506101837f000000000000000000000000000000000000000000000000000000000000000081565b34801561025557600080fd5b506101e6610264366004611a83565b610664565b34801561027557600080fd5b506101e6610284366004611bb1565b610708565b34801561029557600080fd5b506102a96102a4366004611c5b565b6107aa565b60405161018d9190611d61565b3480156102c257600080fd5b506101b66102d1366004611a83565b600090815260046020526040902054151590565b3480156102f157600080fd5b506101e66108e8565b34801561030657600080fd5b506003546040516001600160a01b03909116815260200161018d565b34801561032e57600080fd5b506101e661033d366004611d74565b6108fc565b34801561034e57600080fd5b50610357610907565b60405161018d9190611db0565b34801561037057600080fd5b5061018361037f366004611a83565b60009081526004602052604090205490565b6101e6610961565b3480156103a557600080fd5b506101837f000000000000000000000000000000000000000000000000000000000000000081565b3480156103d957600080fd5b506101b66103e8366004611de2565b6001600160a01b03918216600090815260016020908152604080832093909416825291909152205460ff1690565b34801561042257600080fd5b506101e6610431366004611e15565b610aef565b34801561044257600080fd5b506101e6610451366004611e7a565b610b8a565b34801561046257600080fd5b50610357610471366004611e7a565b610c17565b60006001600160a01b0383166104f95760405162461bcd60e51b815260206004820152602a60248201527f455243313135353a2061646472657373207a65726f206973206e6f742061207660448201527f616c6964206f776e65720000000000000000000000000000000000000000000060648201526084015b60405180910390fd5b506000908152602081815260408083206001600160a01b03949094168352929052205490565b60006001600160e01b031982167fd9b67a2600000000000000000000000000000000000000000000000000000000148061058257506001600160e01b031982167f0e89341c00000000000000000000000000000000000000000000000000000000145b806105b657507f01ffc9a7000000000000000000000000000000000000000000000000000000006001600160e01b03198316145b92915050565b6105c4610c6d565b6105cd81610cc7565b50565b6060600280546105df90611e95565b80601f016020809104026020016040519081016040528092919081815260200182805461060b90611e95565b80156106585780601f1061062d57610100808354040283529160200191610658565b820191906000526020600020905b81548152906001019060200180831161063b57829003601f168201915b50505050509050919050565b61066c610c6d565b604051600090339083908381818185875af1925050503d80600081146106ae576040519150601f19603f3d011682016040523d82523d6000602084013e6106b3565b606091505b50509050806107045760405162461bcd60e51b815260206004820152601460248201527f4661696c656420746f2073656e642076616c756500000000000000000000000060448201526064016104f0565b5050565b6001600160a01b038516331480610724575061072485336103e8565b6107965760405162461bcd60e51b815260206004820152602e60248201527f455243313135353a2063616c6c6572206973206e6f7420746f6b656e206f776e60448201527f6572206f7220617070726f76656400000000000000000000000000000000000060648201526084016104f0565b6107a38585858585610cda565b5050505050565b606081518351146108235760405162461bcd60e51b815260206004820152602960248201527f455243313135353a206163636f756e747320616e6420696473206c656e67746860448201527f206d69736d61746368000000000000000000000000000000000000000000000060648201526084016104f0565b6000835167ffffffffffffffff81111561083f5761083f611991565b604051908082528060200260200182016040528015610868578160200160208202803683370190505b50905060005b84518110156108e0576108b385828151811061088c5761088c611eca565b60200260200101518583815181106108a6576108a6611eca565b6020026020010151610476565b8282815181106108c5576108c5611eca565b60209081029190910101526108d981611ef6565b905061086e565b509392505050565b6108f0610c6d565b6108fa6000610f5b565b565b610704338383610fc5565b61090f611859565b610917611859565b60005b600a81101561095b576000818152600460205260409020548282600a811061094457610944611eca565b60200201528061095381611ef6565b91505061091a565b50919050565b7f000000000000000000000000000000000000000000000000000000000000000034146109d05760405162461bcd60e51b815260206004820152600b60248201527f57726f6e672076616c756500000000000000000000000000000000000000000060448201526064016104f0565b7f00000000000000000000000000000000000000000000000000000000000000004210610a3f5760405162461bcd60e51b815260206004820152601160248201527f526f6c6c20706572696f6420656e64656400000000000000000000000000000060448201526064016104f0565b6000610a4c600143611f11565b600554604080519240602084015282015260600160408051601f198184030181529190528051602090910120600580549192506000610a8a83611ef6565b9091555060009050610a9d600a83611f28565b60ff169050610abe33826001604051806020016040528060008152506110ba565b604051819033907fc448780095c888069f570dff7892c707b30a0617e3a68ce5e24405b6e8f9882190600090a35050565b6001600160a01b038516331480610b0b5750610b0b85336103e8565b610b7d5760405162461bcd60e51b815260206004820152602e60248201527f455243313135353a2063616c6c6572206973206e6f7420746f6b656e206f776e60448201527f6572206f7220617070726f76656400000000000000000000000000000000000060648201526084016104f0565b6107a385858585856111f9565b610b92610c6d565b6001600160a01b038116610c0e5760405162461bcd60e51b815260206004820152602660248201527f4f776e61626c653a206e6577206f776e657220697320746865207a65726f206160448201527f646472657373000000000000000000000000000000000000000000000000000060648201526084016104f0565b6105cd81610f5b565b610c1f611859565b610c27611859565b60005b600a811015610c6657610c3d8482610476565b8282600a8110610c4f57610c4f611eca565b602002015280610c5e81611ef6565b915050610c2a565b5092915050565b6003546001600160a01b031633146108fa5760405162461bcd60e51b815260206004820181905260248201527f4f776e61626c653a2063616c6c6572206973206e6f7420746865206f776e657260448201526064016104f0565b8051610704906002906020840190611878565b8151835114610d515760405162461bcd60e51b815260206004820152602860248201527f455243313135353a2069647320616e6420616d6f756e7473206c656e6774682060448201527f6d69736d6174636800000000000000000000000000000000000000000000000060648201526084016104f0565b6001600160a01b038416610db55760405162461bcd60e51b815260206004820152602560248201527f455243313135353a207472616e7366657220746f20746865207a65726f206164604482015264647265737360d81b60648201526084016104f0565b33610dc48187878787876113b2565b60005b8451811015610eed576000858281518110610de457610de4611eca565b602002602001015190506000858381518110610e0257610e02611eca565b602090810291909101810151600084815280835260408082206001600160a01b038e168352909352919091205490915081811015610e955760405162461bcd60e51b815260206004820152602a60248201527f455243313135353a20696e73756666696369656e742062616c616e636520666f60448201526939103a3930b739b332b960b11b60648201526084016104f0565b6000838152602081815260408083206001600160a01b038e8116855292528083208585039055908b16825281208054849290610ed2908490611f58565b9250508190555050505080610ee690611ef6565b9050610dc7565b50846001600160a01b0316866001600160a01b0316826001600160a01b03167f4a39dc06d4c0dbc64b70af90fd698a233a518aa5d07e595d983b8c0526c8f7fb8787604051610f3d929190611f70565b60405180910390a4610f538187878787876113c0565b505050505050565b600380546001600160a01b038381167fffffffffffffffffffffffff0000000000000000000000000000000000000000831681179093556040519116919082907f8be0079c531659141344cd1fd0a4f28419497f9722a3daafe3b4186f6b6457e090600090a35050565b816001600160a01b0316836001600160a01b0316141561104d5760405162461bcd60e51b815260206004820152602960248201527f455243313135353a2073657474696e6720617070726f76616c2073746174757360448201527f20666f722073656c66000000000000000000000000000000000000000000000060648201526084016104f0565b6001600160a01b03838116600081815260016020908152604080832094871680845294825291829020805460ff191686151590811790915591519182527f17307eab39ab6107e8899845ad3d59bd9653f200f220920489ca2b5937696c31910160405180910390a3505050565b6001600160a01b0384166111365760405162461bcd60e51b815260206004820152602160248201527f455243313135353a206d696e7420746f20746865207a65726f2061646472657360448201527f730000000000000000000000000000000000000000000000000000000000000060648201526084016104f0565b33600061114285611575565b9050600061114f85611575565b9050611160836000898585896113b2565b6000868152602081815260408083206001600160a01b038b16845290915281208054879290611190908490611f58565b909155505060408051878152602081018790526001600160a01b03808a1692600092918716917fc3d58168c5ae7397731d063d5bbf3d657854427343f4c083240f7aacaa2d0f62910160405180910390a46111f0836000898989896115c0565b50505050505050565b6001600160a01b03841661125d5760405162461bcd60e51b815260206004820152602560248201527f455243313135353a207472616e7366657220746f20746865207a65726f206164604482015264647265737360d81b60648201526084016104f0565b33600061126985611575565b9050600061127685611575565b90506112868389898585896113b2565b6000868152602081815260408083206001600160a01b038c1684529091529020548581101561130a5760405162461bcd60e51b815260206004820152602a60248201527f455243313135353a20696e73756666696369656e742062616c616e636520666f60448201526939103a3930b739b332b960b11b60648201526084016104f0565b6000878152602081815260408083206001600160a01b038d8116855292528083208985039055908a16825281208054889290611347908490611f58565b909155505060408051888152602081018890526001600160a01b03808b16928c821692918816917fc3d58168c5ae7397731d063d5bbf3d657854427343f4c083240f7aacaa2d0f62910160405180910390a46113a7848a8a8a8a8a6115c0565b505050505050505050565b610f538686868686866116cb565b6001600160a01b0384163b15610f535760405163bc197c8160e01b81526001600160a01b0385169063bc197c81906114049089908990889088908890600401611f9e565b602060405180830381600087803b15801561141e57600080fd5b505af192505050801561144e575060408051601f3d908101601f1916820190925261144b91810190611ffc565b60015b6115045761145a612019565b806308c379a01415611494575061146f612035565b8061147a5750611496565b8060405162461bcd60e51b81526004016104f09190611ae9565b505b60405162461bcd60e51b815260206004820152603460248201527f455243313135353a207472616e7366657220746f206e6f6e2d4552433131353560448201527f526563656976657220696d706c656d656e74657200000000000000000000000060648201526084016104f0565b6001600160e01b0319811663bc197c8160e01b146111f05760405162461bcd60e51b815260206004820152602860248201527f455243313135353a204552433131353552656365697665722072656a656374656044820152676420746f6b656e7360c01b60648201526084016104f0565b604080516001808252818301909252606091600091906020808301908036833701905050905082816000815181106115af576115af611eca565b602090810291909101015292915050565b6001600160a01b0384163b15610f535760405163f23a6e6160e01b81526001600160a01b0385169063f23a6e619061160490899089908890889088906004016120bf565b602060405180830381600087803b15801561161e57600080fd5b505af192505050801561164e575060408051601f3d908101601f1916820190925261164b91810190611ffc565b60015b61165a5761145a612019565b6001600160e01b0319811663f23a6e6160e01b146111f05760405162461bcd60e51b815260206004820152602860248201527f455243313135353a204552433131353552656365697665722072656a656374656044820152676420746f6b656e7360c01b60648201526084016104f0565b6001600160a01b0385166117525760005b8351811015611750578281815181106116f7576116f7611eca565b60200260200101516004600086848151811061171557611715611eca565b60200260200101518152602001908152602001600020600082825461173a9190611f58565b90915550611749905081611ef6565b90506116dc565b505b6001600160a01b038416610f535760005b83518110156111f057600084828151811061178057611780611eca565b60200260200101519050600084838151811061179e5761179e611eca565b60200260200101519050600060046000848152602001908152602001600020549050818110156118365760405162461bcd60e51b815260206004820152602860248201527f455243313135353a206275726e20616d6f756e74206578636565647320746f7460448201527f616c537570706c7900000000000000000000000000000000000000000000000060648201526084016104f0565b6000928352600460205260409092209103905561185281611ef6565b9050611763565b604051806101400160405280600a906020820280368337509192915050565b82805461188490611e95565b90600052602060002090601f0160209004810192826118a657600085556118ec565b82601f106118bf57805160ff19168380011785556118ec565b828001600101855582156118ec579182015b828111156118ec5782518255916020019190600101906118d1565b506118f89291506118fc565b5090565b5b808211156118f857600081556001016118fd565b80356001600160a01b038116811461192857600080fd5b919050565b6000806040838503121561194057600080fd5b61194983611911565b946020939093013593505050565b6001600160e01b0319811681146105cd57600080fd5b60006020828403121561197f57600080fd5b813561198a81611957565b9392505050565b634e487b7160e01b600052604160045260246000fd5b601f8201601f1916810167ffffffffffffffff811182821017156119cd576119cd611991565b6040525050565b600067ffffffffffffffff8311156119ee576119ee611991565b604051611a05601f8501601f1916602001826119a7565b809150838152848484011115611a1a57600080fd5b83836020830137600060208583010152509392505050565b600060208284031215611a4457600080fd5b813567ffffffffffffffff811115611a5b57600080fd5b8201601f81018413611a6c57600080fd5b611a7b848235602084016119d4565b949350505050565b600060208284031215611a9557600080fd5b5035919050565b6000815180845260005b81811015611ac257602081850181015186830182015201611aa6565b81811115611ad4576000602083870101525b50601f01601f19169290920160200192915050565b60208152600061198a6020830184611a9c565b600067ffffffffffffffff821115611b1657611b16611991565b5060051b60200190565b600082601f830112611b3157600080fd5b81356020611b3e82611afc565b604051611b4b82826119a7565b83815260059390931b8501820192828101915086841115611b6b57600080fd5b8286015b84811015611b865780358352918301918301611b6f565b509695505050505050565b600082601f830112611ba257600080fd5b61198a838335602085016119d4565b600080600080600060a08688031215611bc957600080fd5b611bd286611911565b9450611be060208701611911565b9350604086013567ffffffffffffffff80821115611bfd57600080fd5b611c0989838a01611b20565b94506060880135915080821115611c1f57600080fd5b611c2b89838a01611b20565b93506080880135915080821115611c4157600080fd5b50611c4e88828901611b91565b9150509295509295909350565b60008060408385031215611c6e57600080fd5b823567ffffffffffffffff80821115611c8657600080fd5b818501915085601f830112611c9a57600080fd5b81356020611ca782611afc565b604051611cb482826119a7565b83815260059390931b8501820192828101915089841115611cd457600080fd5b948201945b83861015611cf957611cea86611911565b82529482019490820190611cd9565b96505086013592505080821115611d0f57600080fd5b50611d1c85828601611b20565b9150509250929050565b600081518084526020808501945080840160005b83811015611d5657815187529582019590820190600101611d3a565b509495945050505050565b60208152600061198a6020830184611d26565b60008060408385031215611d8757600080fd5b611d9083611911565b915060208301358015158114611da557600080fd5b809150509250929050565b6101408101818360005b600a811015611dd9578151835260209283019290910190600101611dba565b50505092915050565b60008060408385031215611df557600080fd5b611dfe83611911565b9150611e0c60208401611911565b90509250929050565b600080600080600060a08688031215611e2d57600080fd5b611e3686611911565b9450611e4460208701611911565b93506040860135925060608601359150608086013567ffffffffffffffff811115611e6e57600080fd5b611c4e88828901611b91565b600060208284031215611e8c57600080fd5b61198a82611911565b600181811c90821680611ea957607f821691505b6020821081141561095b57634e487b7160e01b600052602260045260246000fd5b634e487b7160e01b600052603260045260246000fd5b634e487b7160e01b600052601160045260246000fd5b6000600019821415611f0a57611f0a611ee0565b5060010190565b600082821015611f2357611f23611ee0565b500390565b600060ff831680611f4957634e487b7160e01b600052601260045260246000fd5b8060ff84160691505092915050565b60008219821115611f6b57611f6b611ee0565b500190565b604081526000611f836040830185611d26565b8281036020840152611f958185611d26565b95945050505050565b60006001600160a01b03808816835280871660208401525060a06040830152611fca60a0830186611d26565b8281036060840152611fdc8186611d26565b90508281036080840152611ff08185611a9c565b98975050505050505050565b60006020828403121561200e57600080fd5b815161198a81611957565b600060033d11156120325760046000803e5060005160e01c5b90565b600060443d10156120435790565b6040516003193d81016004833e81513d67ffffffffffffffff816024840111818411171561207357505050505090565b828501915081518181111561208b5750505050505090565b843d87010160208285010111156120a55750505050505090565b6120b4602082860101876119a7565b509095945050505050565b60006001600160a01b03808816835280871660208401525084604083015283606083015260a060808301526120f760a0830184611a9c565b97965050505050505056fea2646970667358221220c3ca0b20ff46b76ce4b8b7026bc41d6ae4a23e4d54937f6c13dada4385b9e3eb64736f6c63430008090033",
  "linkReferences": {},
  "deployedLinkReferences": {}
}