{
  "_format": "hh-sol-artifact-1",
  "contractName": "Anohito",
  "sourceName": "contracts/Anohito.sol",
  "abi": [
    {
      "inputs": [
        {
          "internalType": "string",
          "name": "uri_",
          "type": "string"
        },
        {
          "internalType": "uint256",
          "name": "rollPrice_",
          "type": "uint256"
        },
        {
          "internalType": "uint256",
          "name": "rollPeriod_",
          "type": "uint256"
        }
      ],
      "stateMutability": "nonpayable",
      "type": "constructor"
    },
    {
      "anonymous": false,
      "inputs": [
        {
          "indexed": true,
          "internalType": "address",
          "name": "account",
          "type": "address"
        },
        {
          "indexed": true,
          "internalType": "address",
          "name": "operator",
          "type": "address"
        },
        {
          "indexed": false,
          "internalType": "bool",
          "name": "approved",
          "type": "bool"
        }
      ],
      "name": "ApprovalForAll",
      "type": "event"
    },
    {
      "anonymous": false,
      "inputs": [
        {
          "indexed": true,
          "internalType": "address",
          "name": "previousOwner",
          "type": "address"
        },
        {
          "indexed": true,
          "internalType": "address",
          "name": "newOwner",
          "type": "address"
        }
      ],
      "name": "OwnershipTransferred",
      "type": "event"
    },
    {
      "anonymous": false,
      "inputs": [
        {
          "indexed": true,
          "internalType": "address",
          "name": "roller",
          "type": "address"
        },
        {
          "indexed": true,
          "internalType": "uint256",
          "name": "tokenId",
          "type": "uint256"
        }
      ],
      "name": "Rolled",
      "type": "event"
    },
    {
      "anonymous": false,
      "inputs": [
        {
          "indexed": true,
          "internalType": "address",
          "name": "operator",
          "type": "address"
        },
        {
          "indexed": true,
          "internalType": "address",
          "name": "from",
          "type": "address"
        },
        {
          "indexed": true,
          "internalType": "address",
          "name": "to",
          "type": "address"
        },
        {
          "indexed": false,
          "internalType": "uint256[]",
          "name": "ids",
          "type": "uint256[]"
        },
        {
          "indexed": false,
          "internalType": "uint256[]",
          "name": "values",
          "type": "uint256[]"
        }
      ],
      "name": "TransferBatch",
      "type": "event"
    },
    {
      "anonymous": false,
      "inputs": [
        {
          "indexed": true,
          "internalType": "address",
          "name": "operator",
          "type": "address"
        },
        {
          "indexed": true,
          "internalType": "address",
          "name": "from",
          "type": "address"
        },
        {
          "indexed": true,
          "internalType": "address",
          "name": "to",
          "type": "address"
        },
        {
          "indexed": false,
          "internalType": "uint256",
          "name": "id",
          "type": "uint256"
        },
        {
          "indexed": false,
          "internalType": "uint256",
          "name": "value",
          "type": "uint256"
        }
      ],
      "name": "TransferSingle",
      "type": "event"
    },
    {
      "anonymous": false,
      "inputs": [
        {
          "indexed": false,
          "internalType": "string",
          "name": "value",
          "type": "string"
        },
        {
          "indexed": true,
          "internalType": "uint256",
          "name": "id",
          "type": "uint256"
        }
      ],
      "name": "URI",
      "type": "event"
    },
    {
      "inputs": [
        {
          "internalType": "address",
          "name": "account",
          "type": "address"
        },
        {
          "internalType": "uint256",
          "name": "id",
          "type": "uint256"
        }
      ],
      "name": "balanceOf",
      "outputs": [
        {
          "internalType": "uint256",
          "name": "",
          "type": "uint256"
        }
      ],
      "stateMutability": "view",
      "type": "function"
    },
    {
      "inputs": [
        {
          "internalType": "address[]",
          "name": "accounts",
          "type": "address[]"
        },
        {
          "internalType": "uint256[]",
          "name": "ids",
          "type": "uint256[]"
        }
      ],
      "name": "balanceOfBatch",
      "outputs": [
        {
          "internalType": "uint256[]",
          "name": "",
          "type": "uint256[]"
        }
      ],
      "stateMutability": "view",
      "type": "function"
    },
    {
      "inputs": [],
      "name": "deadline",
      "outputs": [
        {
          "internalType": "uint256",
          "name": "",
          "type": "uint256"
        }
      ],
      "stateMutability": "view",
      "type": "function"
    },
    {
      "inputs": [
        {
          "internalType": "uint256",
          "name": "id",
          "type": "uint256"
        }
      ],
      "name": "exists",
      "outputs": [
        {
          "internalType": "bool",
          "name": "",
          "type": "bool"
        }
      ],
      "stateMutability": "view",
      "type": "function"
    },
    {
      "inputs": [
        {
          "internalType": "address",
          "name": "account",
          "type": "address"
        },
        {
          "internalType": "address",
          "name": "operator",
          "type": "address"
        }
      ],
      "name": "isApprovedForAll",
      "outputs": [
        {
          "internalType": "bool",
          "name": "",
          "type": "bool"
        }
      ],
      "stateMutability": "view",
      "type": "function"
    },
    {
      "inputs": [
        {
          "internalType": "address",
          "name": "account",
          "type": "address"
        },
        {
          "internalType": "uint256",
          "name": "id",
          "type": "uint256"
        },
        {
          "internalType": "uint256",
          "name": "amount",
          "type": "uint256"
        },
        {
          "internalType": "bytes",
          "name": "data",
          "type": "bytes"
        }
      ],
      "name": "mint",
      "outputs": [],
      "stateMutability": "nonpayable",
      "type": "function"
    },
    {
      "inputs": [],
      "name": "owner",
      "outputs": [
        {
          "internalType": "address",
          "name": "",
          "type": "address"
        }
      ],
      "stateMutability": "view",
      "type": "function"
    },
    {
      "inputs": [],
      "name": "renounceOwnership",
      "outputs": [],
      "stateMutability": "nonpayable",
      "type": "function"
    },
    {
      "inputs": [],
      "name": "roll",
      "outputs": [],
      "stateMutability": "payable",
      "type": "function"
    },
    {
      "inputs": [],
      "name": "rollPrice",
      "outputs": [
        {
          "internalType": "uint256",
          "name": "",
          "type": "uint256"
        }
      ],
      "stateMutability": "view",
      "type": "function"
    },
    {
      "inputs": [
        {
          "internalType": "address",
          "name": "from",
          "type": "address"
        },
        {
          "internalType": "address",
          "name": "to",
          "type": "address"
        },
        {
          "internalType": "uint256[]",
          "name": "ids",
          "type": "uint256[]"
        },
        {
          "internalType": "uint256[]",
          "name": "amounts",
          "type": "uint256[]"
        },
        {
          "internalType": "bytes",
          "name": "data",
          "type": "bytes"
        }
      ],
      "name": "safeBatchTransferFrom",
      "outputs": [],
      "stateMutability": "nonpayable",
      "type": "function"
    },
    {
      "inputs": [
        {
          "internalType": "address",
          "name": "from",
          "type": "address"
        },
        {
          "internalType": "address",
          "name": "to",
          "type": "address"
        },
        {
          "internalType": "uint256",
          "name": "id",
          "type": "uint256"
        },
        {
          "internalType": "uint256",
          "name": "amount",
          "type": "uint256"
        },
        {
          "internalType": "bytes",
          "name": "data",
          "type": "bytes"
        }
      ],
      "name": "safeTransferFrom",
      "outputs": [],
      "stateMutability": "nonpayable",
      "type": "function"
    },
    {
      "inputs": [
        {
          "internalType": "address",
          "name": "operator",
          "type": "address"
        },
        {
          "internalType": "bool",
          "name": "approved",
          "type": "bool"
        }
      ],
      "name": "setApprovalForAll",
      "outputs": [],
      "stateMutability": "nonpayable",
      "type": "function"
    },
    {
      "inputs": [
        {
          "internalType": "string",
          "name": "newuri",
          "type": "string"
        }
      ],
      "name": "setURI",
      "outputs": [],
      "stateMutability": "nonpayable",
      "type": "function"
    },
    {
      "inputs": [
        {
          "internalType": "bytes4",
          "name": "interfaceId",
          "type": "bytes4"
        }
      ],
      "name": "supportsInterface",
      "outputs": [
        {
          "internalType": "bool",
          "name": "",
          "type": "bool"
        }
      ],
      "stateMutability": "view",
      "type": "function"
    },
    {
      "inputs": [
        {
          "internalType": "uint256",
          "name": "id",
          "type": "uint256"
        }
      ],
      "name": "totalSupply",
      "outputs": [
        {
          "internalType": "uint256",
          "name": "",
          "type": "uint256"
        }
      ],
      "stateMutability": "view",
      "type": "function"
    },
    {
      "inputs": [
        {
          "internalType": "address",
          "name": "newOwner",
          "type": "address"
        }
      ],
      "name": "transferOwnership",
      "outputs": [],
      "stateMutability": "nonpayable",
      "type": "function"
    },
    {
      "inputs": [
        {
          "internalType": "uint256",
          "name": "",
          "type": "uint256"
        }
      ],
      "name": "uri",
      "outputs": [
        {
          "internalType": "string",
          "name": "",
          "type": "string"
        }
      ],
      "stateMutability": "view",
      "type": "function"
    }
  ],
  "bytecode": "0x60c060405260016005553480156200001657600080fd5b50604051620022be380380620022be833981016040819052620000399162000196565b8262000045816200006f565b50620000513362000088565b608082905262000062814262000286565b60a05250620002ea915050565b805162000084906002906020840190620000da565b5050565b600380546001600160a01b038381166001600160a01b0319831681179093556040519116919082907f8be0079c531659141344cd1fd0a4f28419497f9722a3daafe3b4186f6b6457e090600090a35050565b828054620000e890620002ad565b90600052602060002090601f0160209004810192826200010c576000855562000157565b82601f106200012757805160ff191683800117855562000157565b8280016001018555821562000157579182015b82811115620001575782518255916020019190600101906200013a565b506200016592915062000169565b5090565b5b808211156200016557600081556001016200016a565b634e487b7160e01b600052604160045260246000fd5b600080600060608486031215620001ac57600080fd5b83516001600160401b0380821115620001c457600080fd5b818601915086601f830112620001d957600080fd5b815181811115620001ee57620001ee62000180565b604051601f8201601f19908116603f0116810190838211818310171562000219576200021962000180565b816040528281526020935089848487010111156200023657600080fd5b600091505b828210156200025a57848201840151818301850152908301906200023b565b828211156200026c5760008484830101525b928801516040909801519299979850919695505050505050565b60008219821115620002a857634e487b7160e01b600052601160045260246000fd5b500190565b600181811c90821680620002c257607f821691505b60208210811415620002e457634e487b7160e01b600052602260045260246000fd5b50919050565b60805160a051611fa06200031e600039600081816101f1015261087a015260008181610353015261080b0152611fa06000f3fe6080604052600436106101285760003560e01c8063731133e9116100a5578063cd5e3c5d11610074578063e985e9c511610059578063e985e9c514610375578063f242432a146103be578063f2fde38b146103de57600080fd5b8063cd5e3c5d14610339578063cf3af3a11461034157600080fd5b8063731133e9146102a45780638da5cb5b146102c4578063a22cb465146102ec578063bd85b0391461030c57600080fd5b806329dcb0cf116100fc5780634e1273f4116100e15780634e1273f4146102335780634f558e7914610260578063715018a61461028f57600080fd5b806329dcb0cf146101df5780632eb2c2d61461021357600080fd5b8062fdd58e1461012d57806301ffc9a71461016057806302fe5305146101905780630e89341c146101b2575b600080fd5b34801561013957600080fd5b5061014d610148366004611760565b6103fe565b6040519081526020015b60405180910390f35b34801561016c57600080fd5b5061018061017b3660046117a0565b6104a7565b6040519015158152602001610157565b34801561019c57600080fd5b506101b06101ab366004611865565b610544565b005b3480156101be57600080fd5b506101d26101cd3660046118b6565b610558565b604051610157919061191c565b3480156101eb57600080fd5b5061014d7f000000000000000000000000000000000000000000000000000000000000000081565b34801561021f57600080fd5b506101b061022e3660046119e4565b6105ec565b34801561023f57600080fd5b5061025361024e366004611a8e565b61068e565b6040516101579190611b94565b34801561026c57600080fd5b5061018061027b3660046118b6565b600090815260046020526040902054151590565b34801561029b57600080fd5b506101b06107cc565b3480156102b057600080fd5b506101b06102bf366004611ba7565b6107e0565b3480156102d057600080fd5b506003546040516001600160a01b039091168152602001610157565b3480156102f857600080fd5b506101b0610307366004611c08565b6107fa565b34801561031857600080fd5b5061014d6103273660046118b6565b60009081526004602052604090205490565b6101b0610809565b34801561034d57600080fd5b5061014d7f000000000000000000000000000000000000000000000000000000000000000081565b34801561038157600080fd5b50610180610390366004611c44565b6001600160a01b03918216600090815260016020908152604080832093909416825291909152205460ff1690565b3480156103ca57600080fd5b506101b06103d9366004611c77565b610997565b3480156103ea57600080fd5b506101b06103f9366004611cdc565b610a32565b60006001600160a01b0383166104815760405162461bcd60e51b815260206004820152602a60248201527f455243313135353a2061646472657373207a65726f206973206e6f742061207660448201527f616c6964206f776e65720000000000000000000000000000000000000000000060648201526084015b60405180910390fd5b506000908152602081815260408083206001600160a01b03949094168352929052205490565b60006001600160e01b031982167fd9b67a2600000000000000000000000000000000000000000000000000000000148061050a57506001600160e01b031982167f0e89341c00000000000000000000000000000000000000000000000000000000145b8061053e57507f01ffc9a7000000000000000000000000000000000000000000000000000000006001600160e01b03198316145b92915050565b61054c610abf565b61055581610b19565b50565b60606002805461056790611cf7565b80601f016020809104026020016040519081016040528092919081815260200182805461059390611cf7565b80156105e05780601f106105b5576101008083540402835291602001916105e0565b820191906000526020600020905b8154815290600101906020018083116105c357829003601f168201915b50505050509050919050565b6001600160a01b03851633148061060857506106088533610390565b61067a5760405162461bcd60e51b815260206004820152602e60248201527f455243313135353a2063616c6c6572206973206e6f7420746f6b656e206f776e60448201527f6572206f7220617070726f7665640000000000000000000000000000000000006064820152608401610478565b6106878585858585610b2c565b5050505050565b606081518351146107075760405162461bcd60e51b815260206004820152602960248201527f455243313135353a206163636f756e747320616e6420696473206c656e67746860448201527f206d69736d6174636800000000000000000000000000000000000000000000006064820152608401610478565b6000835167ffffffffffffffff811115610723576107236117c4565b60405190808252806020026020018201604052801561074c578160200160208202803683370190505b50905060005b84518110156107c45761079785828151811061077057610770611d32565b602002602001015185838151811061078a5761078a611d32565b60200260200101516103fe565b8282815181106107a9576107a9611d32565b60209081029190910101526107bd81611d5e565b9050610752565b509392505050565b6107d4610abf565b6107de6000610dad565b565b6107e8610abf565b6107f484848484610e17565b50505050565b610805338383610f56565b5050565b7f000000000000000000000000000000000000000000000000000000000000000034146108785760405162461bcd60e51b815260206004820152600b60248201527f57726f6e672076616c75650000000000000000000000000000000000000000006044820152606401610478565b7f000000000000000000000000000000000000000000000000000000000000000042106108e75760405162461bcd60e51b815260206004820152601160248201527f526f6c6c20706572696f6420656e6465640000000000000000000000000000006044820152606401610478565b60006108f4600143611d79565b600554604080519240602084015282015260600160408051601f19818403018152919052805160209091012060058054919250600061093283611d5e565b9091555060009050610945600a83611d90565b60ff1690506109663382600160405180602001604052806000815250610e17565b604051819033907fc448780095c888069f570dff7892c707b30a0617e3a68ce5e24405b6e8f9882190600090a35050565b6001600160a01b0385163314806109b357506109b38533610390565b610a255760405162461bcd60e51b815260206004820152602e60248201527f455243313135353a2063616c6c6572206973206e6f7420746f6b656e206f776e60448201527f6572206f7220617070726f7665640000000000000000000000000000000000006064820152608401610478565b610687858585858561104b565b610a3a610abf565b6001600160a01b038116610ab65760405162461bcd60e51b815260206004820152602660248201527f4f776e61626c653a206e6577206f776e657220697320746865207a65726f206160448201527f64647265737300000000000000000000000000000000000000000000000000006064820152608401610478565b61055581610dad565b6003546001600160a01b031633146107de5760405162461bcd60e51b815260206004820181905260248201527f4f776e61626c653a2063616c6c6572206973206e6f7420746865206f776e65726044820152606401610478565b80516108059060029060208401906116ab565b8151835114610ba35760405162461bcd60e51b815260206004820152602860248201527f455243313135353a2069647320616e6420616d6f756e7473206c656e6774682060448201527f6d69736d617463680000000000000000000000000000000000000000000000006064820152608401610478565b6001600160a01b038416610c075760405162461bcd60e51b815260206004820152602560248201527f455243313135353a207472616e7366657220746f20746865207a65726f206164604482015264647265737360d81b6064820152608401610478565b33610c16818787878787611204565b60005b8451811015610d3f576000858281518110610c3657610c36611d32565b602002602001015190506000858381518110610c5457610c54611d32565b602090810291909101810151600084815280835260408082206001600160a01b038e168352909352919091205490915081811015610ce75760405162461bcd60e51b815260206004820152602a60248201527f455243313135353a20696e73756666696369656e742062616c616e636520666f60448201526939103a3930b739b332b960b11b6064820152608401610478565b6000838152602081815260408083206001600160a01b038e8116855292528083208585039055908b16825281208054849290610d24908490611dc0565b9250508190555050505080610d3890611d5e565b9050610c19565b50846001600160a01b0316866001600160a01b0316826001600160a01b03167f4a39dc06d4c0dbc64b70af90fd698a233a518aa5d07e595d983b8c0526c8f7fb8787604051610d8f929190611dd8565b60405180910390a4610da5818787878787611212565b505050505050565b600380546001600160a01b038381167fffffffffffffffffffffffff0000000000000000000000000000000000000000831681179093556040519116919082907f8be0079c531659141344cd1fd0a4f28419497f9722a3daafe3b4186f6b6457e090600090a35050565b6001600160a01b038416610e935760405162461bcd60e51b815260206004820152602160248201527f455243313135353a206d696e7420746f20746865207a65726f2061646472657360448201527f73000000000000000000000000000000000000000000000000000000000000006064820152608401610478565b336000610e9f856113c7565b90506000610eac856113c7565b9050610ebd83600089858589611204565b6000868152602081815260408083206001600160a01b038b16845290915281208054879290610eed908490611dc0565b909155505060408051878152602081018790526001600160a01b03808a1692600092918716917fc3d58168c5ae7397731d063d5bbf3d657854427343f4c083240f7aacaa2d0f62910160405180910390a4610f4d83600089898989611412565b50505050505050565b816001600160a01b0316836001600160a01b03161415610fde5760405162461bcd60e51b815260206004820152602960248201527f455243313135353a2073657474696e6720617070726f76616c2073746174757360448201527f20666f722073656c6600000000000000000000000000000000000000000000006064820152608401610478565b6001600160a01b03838116600081815260016020908152604080832094871680845294825291829020805460ff191686151590811790915591519182527f17307eab39ab6107e8899845ad3d59bd9653f200f220920489ca2b5937696c31910160405180910390a3505050565b6001600160a01b0384166110af5760405162461bcd60e51b815260206004820152602560248201527f455243313135353a207472616e7366657220746f20746865207a65726f206164604482015264647265737360d81b6064820152608401610478565b3360006110bb856113c7565b905060006110c8856113c7565b90506110d8838989858589611204565b6000868152602081815260408083206001600160a01b038c1684529091529020548581101561115c5760405162461bcd60e51b815260206004820152602a60248201527f455243313135353a20696e73756666696369656e742062616c616e636520666f60448201526939103a3930b739b332b960b11b6064820152608401610478565b6000878152602081815260408083206001600160a01b038d8116855292528083208985039055908a16825281208054889290611199908490611dc0565b909155505060408051888152602081018890526001600160a01b03808b16928c821692918816917fc3d58168c5ae7397731d063d5bbf3d657854427343f4c083240f7aacaa2d0f62910160405180910390a46111f9848a8a8a8a8a611412565b505050505050505050565b610da586868686868661151d565b6001600160a01b0384163b15610da55760405163bc197c8160e01b81526001600160a01b0385169063bc197c81906112569089908990889088908890600401611e06565b602060405180830381600087803b15801561127057600080fd5b505af19250505080156112a0575060408051601f3d908101601f1916820190925261129d91810190611e64565b60015b611356576112ac611e81565b806308c379a014156112e657506112c1611e9d565b806112cc57506112e8565b8060405162461bcd60e51b8152600401610478919061191c565b505b60405162461bcd60e51b815260206004820152603460248201527f455243313135353a207472616e7366657220746f206e6f6e2d4552433131353560448201527f526563656976657220696d706c656d656e7465720000000000000000000000006064820152608401610478565b6001600160e01b0319811663bc197c8160e01b14610f4d5760405162461bcd60e51b815260206004820152602860248201527f455243313135353a204552433131353552656365697665722072656a656374656044820152676420746f6b656e7360c01b6064820152608401610478565b6040805160018082528183019092526060916000919060208083019080368337019050509050828160008151811061140157611401611d32565b602090810291909101015292915050565b6001600160a01b0384163b15610da55760405163f23a6e6160e01b81526001600160a01b0385169063f23a6e61906114569089908990889088908890600401611f27565b602060405180830381600087803b15801561147057600080fd5b505af19250505080156114a0575060408051601f3d908101601f1916820190925261149d91810190611e64565b60015b6114ac576112ac611e81565b6001600160e01b0319811663f23a6e6160e01b14610f4d5760405162461bcd60e51b815260206004820152602860248201527f455243313135353a204552433131353552656365697665722072656a656374656044820152676420746f6b656e7360c01b6064820152608401610478565b6001600160a01b0385166115a45760005b83518110156115a25782818151811061154957611549611d32565b60200260200101516004600086848151811061156757611567611d32565b60200260200101518152602001908152602001600020600082825461158c9190611dc0565b9091555061159b905081611d5e565b905061152e565b505b6001600160a01b038416610da55760005b8351811015610f4d5760008482815181106115d2576115d2611d32565b6020026020010151905060008483815181106115f0576115f0611d32565b60200260200101519050600060046000848152602001908152602001600020549050818110156116885760405162461bcd60e51b815260206004820152602860248201527f455243313135353a206275726e20616d6f756e74206578636565647320746f7460448201527f616c537570706c790000000000000000000000000000000000000000000000006064820152608401610478565b600092835260046020526040909220910390556116a481611d5e565b90506115b5565b8280546116b790611cf7565b90600052602060002090601f0160209004810192826116d9576000855561171f565b82601f106116f257805160ff191683800117855561171f565b8280016001018555821561171f579182015b8281111561171f578251825591602001919060010190611704565b5061172b92915061172f565b5090565b5b8082111561172b5760008155600101611730565b80356001600160a01b038116811461175b57600080fd5b919050565b6000806040838503121561177357600080fd5b61177c83611744565b946020939093013593505050565b6001600160e01b03198116811461055557600080fd5b6000602082840312156117b257600080fd5b81356117bd8161178a565b9392505050565b634e487b7160e01b600052604160045260246000fd5b601f8201601f1916810167ffffffffffffffff81118282101715611800576118006117c4565b6040525050565b600067ffffffffffffffff831115611821576118216117c4565b604051611838601f8501601f1916602001826117da565b80915083815284848401111561184d57600080fd5b83836020830137600060208583010152509392505050565b60006020828403121561187757600080fd5b813567ffffffffffffffff81111561188e57600080fd5b8201601f8101841361189f57600080fd5b6118ae84823560208401611807565b949350505050565b6000602082840312156118c857600080fd5b5035919050565b6000815180845260005b818110156118f5576020818501810151868301820152016118d9565b81811115611907576000602083870101525b50601f01601f19169290920160200192915050565b6020815260006117bd60208301846118cf565b600067ffffffffffffffff821115611949576119496117c4565b5060051b60200190565b600082601f83011261196457600080fd5b813560206119718261192f565b60405161197e82826117da565b83815260059390931b850182019282810191508684111561199e57600080fd5b8286015b848110156119b957803583529183019183016119a2565b509695505050505050565b600082601f8301126119d557600080fd5b6117bd83833560208501611807565b600080600080600060a086880312156119fc57600080fd5b611a0586611744565b9450611a1360208701611744565b9350604086013567ffffffffffffffff80821115611a3057600080fd5b611a3c89838a01611953565b94506060880135915080821115611a5257600080fd5b611a5e89838a01611953565b93506080880135915080821115611a7457600080fd5b50611a81888289016119c4565b9150509295509295909350565b60008060408385031215611aa157600080fd5b823567ffffffffffffffff80821115611ab957600080fd5b818501915085601f830112611acd57600080fd5b81356020611ada8261192f565b604051611ae782826117da565b83815260059390931b8501820192828101915089841115611b0757600080fd5b948201945b83861015611b2c57611b1d86611744565b82529482019490820190611b0c565b96505086013592505080821115611b4257600080fd5b50611b4f85828601611953565b9150509250929050565b600081518084526020808501945080840160005b83811015611b8957815187529582019590820190600101611b6d565b509495945050505050565b6020815260006117bd6020830184611b59565b60008060008060808587031215611bbd57600080fd5b611bc685611744565b93506020850135925060408501359150606085013567ffffffffffffffff811115611bf057600080fd5b611bfc878288016119c4565b91505092959194509250565b60008060408385031215611c1b57600080fd5b611c2483611744565b915060208301358015158114611c3957600080fd5b809150509250929050565b60008060408385031215611c5757600080fd5b611c6083611744565b9150611c6e60208401611744565b90509250929050565b600080600080600060a08688031215611c8f57600080fd5b611c9886611744565b9450611ca660208701611744565b93506040860135925060608601359150608086013567ffffffffffffffff811115611cd057600080fd5b611a81888289016119c4565b600060208284031215611cee57600080fd5b6117bd82611744565b600181811c90821680611d0b57607f821691505b60208210811415611d2c57634e487b7160e01b600052602260045260246000fd5b50919050565b634e487b7160e01b600052603260045260246000fd5b634e487b7160e01b600052601160045260246000fd5b6000600019821415611d7257611d72611d48565b5060010190565b600082821015611d8b57611d8b611d48565b500390565b600060ff831680611db157634e487b7160e01b600052601260045260246000fd5b8060ff84160691505092915050565b60008219821115611dd357611dd3611d48565b500190565b604081526000611deb6040830185611b59565b8281036020840152611dfd8185611b59565b95945050505050565b60006001600160a01b03808816835280871660208401525060a06040830152611e3260a0830186611b59565b8281036060840152611e448186611b59565b90508281036080840152611e5881856118cf565b98975050505050505050565b600060208284031215611e7657600080fd5b81516117bd8161178a565b600060033d1115611e9a5760046000803e5060005160e01c5b90565b600060443d1015611eab5790565b6040516003193d81016004833e81513d67ffffffffffffffff8160248401118184111715611edb57505050505090565b8285019150815181811115611ef35750505050505090565b843d8701016020828501011115611f0d5750505050505090565b611f1c602082860101876117da565b509095945050505050565b60006001600160a01b03808816835280871660208401525084604083015283606083015260a06080830152611f5f60a08301846118cf565b97965050505050505056fea2646970667358221220c2f0db16b3cca48061bfe3eb558f73ffd7a1a9437c0818e8d60a788bf2000eac64736f6c63430008090033",
  "linkReferences": {},
  "deployedLinkReferences": {}
}